{
  "contractName": "Kittycontract",
  "abi": [
    {
      "inputs": [],
      "payable": false,
      "stateMutability": "nonpayable",
      "type": "constructor"
    },
    {
      "anonymous": false,
      "inputs": [
        {
          "indexed": true,
          "internalType": "address",
          "name": "owner",
          "type": "address"
        },
        {
          "indexed": true,
          "internalType": "address",
          "name": "approved",
          "type": "address"
        },
        {
          "indexed": true,
          "internalType": "uint256",
          "name": "tokenId",
          "type": "uint256"
        }
      ],
      "name": "Approval",
      "type": "event"
    },
    {
      "anonymous": false,
      "inputs": [
        {
          "indexed": true,
          "internalType": "address",
          "name": "owner",
          "type": "address"
        },
        {
          "indexed": true,
          "internalType": "address",
          "name": "operator",
          "type": "address"
        },
        {
          "indexed": false,
          "internalType": "bool",
          "name": "approved",
          "type": "bool"
        }
      ],
      "name": "ApprovalForAll",
      "type": "event"
    },
    {
      "anonymous": false,
      "inputs": [
        {
          "indexed": false,
          "internalType": "address",
          "name": "owner",
          "type": "address"
        },
        {
          "indexed": false,
          "internalType": "uint256",
          "name": "kittenId",
          "type": "uint256"
        },
        {
          "indexed": false,
          "internalType": "uint256",
          "name": "mumId",
          "type": "uint256"
        },
        {
          "indexed": false,
          "internalType": "uint256",
          "name": "dadId",
          "type": "uint256"
        },
        {
          "indexed": false,
          "internalType": "uint256",
          "name": "genes",
          "type": "uint256"
        }
      ],
      "name": "Birth",
      "type": "event"
    },
    {
      "anonymous": false,
      "inputs": [
        {
          "indexed": true,
          "internalType": "address",
          "name": "from",
          "type": "address"
        },
        {
          "indexed": true,
          "internalType": "address",
          "name": "to",
          "type": "address"
        },
        {
          "indexed": true,
          "internalType": "uint256",
          "name": "tokenId",
          "type": "uint256"
        }
      ],
      "name": "Transfer",
      "type": "event"
    },
    {
      "constant": true,
      "inputs": [],
      "name": "CREATION_LIMIT_GEN0",
      "outputs": [
        {
          "internalType": "uint256",
          "name": "",
          "type": "uint256"
        }
      ],
      "payable": false,
      "stateMutability": "view",
      "type": "function"
    },
    {
      "constant": true,
      "inputs": [],
      "name": "CREATION_LIMIT_USER",
      "outputs": [
        {
          "internalType": "uint256",
          "name": "",
          "type": "uint256"
        }
      ],
      "payable": false,
      "stateMutability": "view",
      "type": "function"
    },
    {
      "constant": true,
      "inputs": [],
      "name": "_name",
      "outputs": [
        {
          "internalType": "string",
          "name": "",
          "type": "string"
        }
      ],
      "payable": false,
      "stateMutability": "view",
      "type": "function"
    },
    {
      "constant": true,
      "inputs": [],
      "name": "_symbol",
      "outputs": [
        {
          "internalType": "string",
          "name": "",
          "type": "string"
        }
      ],
      "payable": false,
      "stateMutability": "view",
      "type": "function"
    },
    {
      "constant": true,
      "inputs": [],
      "name": "gen0Counter",
      "outputs": [
        {
          "internalType": "uint256",
          "name": "",
          "type": "uint256"
        }
      ],
      "payable": false,
      "stateMutability": "view",
      "type": "function"
    },
    {
      "constant": true,
      "inputs": [
        {
          "internalType": "uint256",
          "name": "",
          "type": "uint256"
        }
      ],
      "name": "kitties",
      "outputs": [
        {
          "internalType": "uint256",
          "name": "genes",
          "type": "uint256"
        },
        {
          "internalType": "uint64",
          "name": "birthTime",
          "type": "uint64"
        },
        {
          "internalType": "uint32",
          "name": "mumId",
          "type": "uint32"
        },
        {
          "internalType": "uint32",
          "name": "dadId",
          "type": "uint32"
        },
        {
          "internalType": "uint16",
          "name": "generation",
          "type": "uint16"
        }
      ],
      "payable": false,
      "stateMutability": "view",
      "type": "function"
    },
    {
      "constant": true,
      "inputs": [
        {
          "internalType": "uint256",
          "name": "",
          "type": "uint256"
        }
      ],
      "name": "kittyIndexToApproved",
      "outputs": [
        {
          "internalType": "address",
          "name": "",
          "type": "address"
        }
      ],
      "payable": false,
      "stateMutability": "view",
      "type": "function"
    },
    {
      "constant": true,
      "inputs": [
        {
          "internalType": "uint256",
          "name": "",
          "type": "uint256"
        }
      ],
      "name": "kittyOwners",
      "outputs": [
        {
          "internalType": "address",
          "name": "",
          "type": "address"
        }
      ],
      "payable": false,
      "stateMutability": "view",
      "type": "function"
    },
    {
      "constant": true,
      "inputs": [],
      "name": "owner",
      "outputs": [
        {
          "internalType": "address payable",
          "name": "",
          "type": "address"
        }
      ],
      "payable": false,
      "stateMutability": "view",
      "type": "function"
    },
    {
      "constant": true,
      "inputs": [
        {
          "internalType": "address",
          "name": "",
          "type": "address"
        }
      ],
      "name": "tokenHolders",
      "outputs": [
        {
          "internalType": "uint256",
          "name": "",
          "type": "uint256"
        }
      ],
      "payable": false,
      "stateMutability": "view",
      "type": "function"
    },
    {
      "constant": true,
      "inputs": [],
      "name": "userCounter",
      "outputs": [
        {
          "internalType": "uint256",
          "name": "",
          "type": "uint256"
        }
      ],
      "payable": false,
      "stateMutability": "view",
      "type": "function"
    },
    {
      "constant": false,
      "inputs": [
        {
          "internalType": "uint256",
          "name": "_genes",
          "type": "uint256"
        }
      ],
      "name": "createKittyGen0",
      "outputs": [
        {
          "internalType": "uint256",
          "name": "",
          "type": "uint256"
        }
      ],
      "payable": false,
      "stateMutability": "nonpayable",
      "type": "function"
    },
    {
      "constant": false,
      "inputs": [
        {
          "internalType": "uint256",
          "name": "_genes",
          "type": "uint256"
        }
      ],
      "name": "createKitty",
      "outputs": [
        {
          "internalType": "uint256",
          "name": "",
          "type": "uint256"
        }
      ],
      "payable": true,
      "stateMutability": "payable",
      "type": "function"
    },
    {
      "constant": false,
      "inputs": [
        {
          "internalType": "uint256",
          "name": "_dadId",
          "type": "uint256"
        },
        {
          "internalType": "uint256",
          "name": "_mumId",
          "type": "uint256"
        }
      ],
      "name": "breed",
      "outputs": [
        {
          "internalType": "uint256",
          "name": "",
          "type": "uint256"
        }
      ],
      "payable": false,
      "stateMutability": "nonpayable",
      "type": "function"
    },
    {
      "constant": false,
      "inputs": [
        {
          "internalType": "address",
          "name": "_operator",
          "type": "address"
        },
        {
          "internalType": "bool",
          "name": "_approved",
          "type": "bool"
        }
      ],
      "name": "setApprovalForAll",
      "outputs": [],
      "payable": false,
      "stateMutability": "nonpayable",
      "type": "function"
    },
    {
      "constant": false,
      "inputs": [
        {
          "internalType": "address",
          "name": "_to",
          "type": "address"
        },
        {
          "internalType": "uint256",
          "name": "kittenId",
          "type": "uint256"
        }
      ],
      "name": "transfer",
      "outputs": [],
      "payable": false,
      "stateMutability": "nonpayable",
      "type": "function"
    },
    {
      "constant": false,
      "inputs": [
        {
          "internalType": "address",
          "name": "_approved",
          "type": "address"
        },
        {
          "internalType": "uint256",
          "name": "kittenId",
          "type": "uint256"
        }
      ],
      "name": "approve",
      "outputs": [],
      "payable": false,
      "stateMutability": "nonpayable",
      "type": "function"
    },
    {
      "constant": false,
      "inputs": [
        {
          "internalType": "address",
          "name": "_from",
          "type": "address"
        },
        {
          "internalType": "address",
          "name": "_to",
          "type": "address"
        },
        {
          "internalType": "uint256",
          "name": "kittenId",
          "type": "uint256"
        }
      ],
      "name": "transferFrom",
      "outputs": [],
      "payable": false,
      "stateMutability": "nonpayable",
      "type": "function"
    },
    {
      "constant": false,
      "inputs": [
        {
          "internalType": "address",
          "name": "_from",
          "type": "address"
        },
        {
          "internalType": "address",
          "name": "_to",
          "type": "address"
        },
        {
          "internalType": "uint256",
          "name": "kittenId",
          "type": "uint256"
        }
      ],
      "name": "safeTransferFrom",
      "outputs": [],
      "payable": false,
      "stateMutability": "nonpayable",
      "type": "function"
    },
    {
      "constant": false,
      "inputs": [
        {
          "internalType": "address",
          "name": "_from",
          "type": "address"
        },
        {
          "internalType": "address",
          "name": "_to",
          "type": "address"
        },
        {
          "internalType": "uint256",
          "name": "kittenId",
          "type": "uint256"
        },
        {
          "internalType": "bytes",
          "name": "data",
          "type": "bytes"
        }
      ],
      "name": "safeTransferFrom",
      "outputs": [],
      "payable": false,
      "stateMutability": "nonpayable",
      "type": "function"
    },
    {
      "constant": false,
      "inputs": [],
      "name": "withdrawAll",
      "outputs": [
        {
          "internalType": "bool",
          "name": "",
          "type": "bool"
        }
      ],
      "payable": false,
      "stateMutability": "nonpayable",
      "type": "function"
    },
    {
      "constant": true,
      "inputs": [
        {
          "internalType": "uint256",
          "name": "_kittenId",
          "type": "uint256"
        }
      ],
      "name": "getKitty",
      "outputs": [
        {
          "internalType": "uint256",
          "name": "genes",
          "type": "uint256"
        },
        {
          "internalType": "uint256",
          "name": "mumId",
          "type": "uint256"
        },
        {
          "internalType": "uint256",
          "name": "dadId",
          "type": "uint256"
        },
        {
          "internalType": "uint256",
          "name": "birthTime",
          "type": "uint256"
        },
        {
          "internalType": "uint256",
          "name": "generation",
          "type": "uint256"
        }
      ],
      "payable": false,
      "stateMutability": "view",
      "type": "function"
    },
    {
      "constant": true,
      "inputs": [
        {
          "internalType": "address",
          "name": "_owner",
          "type": "address"
        }
      ],
      "name": "tokensOfOwner",
      "outputs": [
        {
          "internalType": "uint256[]",
          "name": "ownerTokens",
          "type": "uint256[]"
        }
      ],
      "payable": false,
      "stateMutability": "view",
      "type": "function"
    },
    {
      "constant": true,
      "inputs": [
        {
          "internalType": "uint256",
          "name": "_kittenId",
          "type": "uint256"
        }
      ],
      "name": "getApproved",
      "outputs": [
        {
          "internalType": "address",
          "name": "",
          "type": "address"
        }
      ],
      "payable": false,
      "stateMutability": "view",
      "type": "function"
    },
    {
      "constant": true,
      "inputs": [
        {
          "internalType": "address",
          "name": "_owner",
          "type": "address"
        },
        {
          "internalType": "address",
          "name": "_operator",
          "type": "address"
        }
      ],
      "name": "isApprovedForAll",
      "outputs": [
        {
          "internalType": "bool",
          "name": "",
          "type": "bool"
        }
      ],
      "payable": false,
      "stateMutability": "view",
      "type": "function"
    },
    {
      "constant": true,
      "inputs": [
        {
          "internalType": "bytes4",
          "name": "_interfaceId",
          "type": "bytes4"
        }
      ],
      "name": "supportsInterface",
      "outputs": [
        {
          "internalType": "bool",
          "name": "",
          "type": "bool"
        }
      ],
      "payable": false,
      "stateMutability": "pure",
      "type": "function"
    },
    {
      "constant": true,
      "inputs": [
        {
          "internalType": "address",
          "name": "owner",
          "type": "address"
        }
      ],
      "name": "balanceOf",
      "outputs": [
        {
          "internalType": "uint256",
          "name": "balance",
          "type": "uint256"
        }
      ],
      "payable": false,
      "stateMutability": "view",
      "type": "function"
    },
    {
      "constant": true,
      "inputs": [],
      "name": "totalSupply",
      "outputs": [
        {
          "internalType": "uint256",
          "name": "total",
          "type": "uint256"
        }
      ],
      "payable": false,
      "stateMutability": "view",
      "type": "function"
    },
    {
      "constant": true,
      "inputs": [],
      "name": "name",
      "outputs": [
        {
          "internalType": "string",
          "name": "tokenName",
          "type": "string"
        }
      ],
      "payable": false,
      "stateMutability": "view",
      "type": "function"
    },
    {
      "constant": true,
      "inputs": [],
      "name": "symbol",
      "outputs": [
        {
          "internalType": "string",
          "name": "tokenSymbol",
          "type": "string"
        }
      ],
      "payable": false,
      "stateMutability": "view",
      "type": "function"
    },
    {
      "constant": true,
      "inputs": [
        {
          "internalType": "uint256",
          "name": "kittenId",
          "type": "uint256"
        }
      ],
      "name": "ownerOf",
      "outputs": [
        {
          "internalType": "address",
          "name": "owner",
          "type": "address"
        }
      ],
      "payable": false,
      "stateMutability": "view",
      "type": "function"
    }
  ],
  "bytecode": "0x60806040523480156200001157600080fd5b50336000806101000a81548173ffffffffffffffffffffffffffffffffffffffff021916908373ffffffffffffffffffffffffffffffffffffffff1602179055506200008a60008060007fffffffffffffffffffffffffffffffffffffffffffffffffffffffffffffffff60006200009160201b60201c565b506200046c565b60006200009d62000423565b6040518060a001604052808581526020014267ffffffffffffffff1681526020018863ffffffff1681526020018763ffffffff1681526020018661ffff16815250905060006001600583908060018154018082558091505090600182039060005260206000209060020201600090919290919091506000820151816000015560208201518160010160006101000a81548167ffffffffffffffff021916908367ffffffffffffffff16021790555060408201518160010160086101000a81548163ffffffff021916908363ffffffff160217905550606082015181600101600c6101000a81548163ffffffff021916908363ffffffff16021790555060808201518160010160106101000a81548161ffff021916908361ffff16021790555050500390507f0a5311bd2a6608f08a180df2ee7c5946819a649b204b554bb8e39825b2c50ad584828a8a89604051808673ffffffffffffffffffffffffffffffffffffffff1673ffffffffffffffffffffffffffffffffffffffff1681526020018581526020018481526020018381526020018281526020019550505050505060405180910390a162000258600085836200026660201b60201c565b809250505095945050505050565b600160008373ffffffffffffffffffffffffffffffffffffffff1673ffffffffffffffffffffffffffffffffffffffff16815260200190815260200160002060008154809291906001019190505550816002600083815260200190815260200160002060006101000a81548173ffffffffffffffffffffffffffffffffffffffff021916908373ffffffffffffffffffffffffffffffffffffffff160217905550600073ffffffffffffffffffffffffffffffffffffffff168373ffffffffffffffffffffffffffffffffffffffff1614620003c357600160008473ffffffffffffffffffffffffffffffffffffffff1673ffffffffffffffffffffffffffffffffffffffff16815260200190815260200160002060008154809291906001900391905055506003600082815260200190815260200160002060006101000a81549073ffffffffffffffffffffffffffffffffffffffff02191690555b808273ffffffffffffffffffffffffffffffffffffffff168473ffffffffffffffffffffffffffffffffffffffff167fddf252ad1be2c89b69c2b068fc378daa952ba7f163c4a11628f55a4df523b3ef60405160405180910390a4505050565b6040518060a0016040528060008152602001600067ffffffffffffffff168152602001600063ffffffff168152602001600063ffffffff168152602001600061ffff1681525090565b612608806200047c6000396000f3fe6080604052600436106101d85760003560e01c806395d89b4111610102578063d28d885211610095578063e985e9c511610064578063e985e9c514610d96578063e98b7f4d14610e1f578063ef5e94aa14610e8a578063f0c37a5914610eb5576101d8565b8063d28d885214610c33578063d5a776ca14610cc3578063d9ecad7b14610d12578063db4e3f8614610d6b576101d8565b8063b0634664116100d1578063b063466414610a24578063b09f126614610a66578063b483433014610af6578063b88d4fde14610b21576101d8565b806395d89b4114610861578063a22cb465146108f1578063a3b856aa1461094e578063a9059cbb146109c9576101d8565b8063481af3d31161017a5780638462151c116101495780638462151c14610696578063853828b61461073c5780638cc51eda1461076b5780638da5cb5b1461080a576101d8565b8063481af3d3146104d65780636352211e14610551578063638b5e53146105cc57806370a0823114610631576101d8565b8063095ea7b3116101b6578063095ea7b31461035a57806318160ddd146103b557806323b872dd146103e057806342842e0e1461045b576101d8565b806301ffc9a7146101dd57806306fdde031461024f578063081812fc146102df575b600080fd5b3480156101e957600080fd5b506102356004803603602081101561020057600080fd5b8101908080357bffffffffffffffffffffffffffffffffffffffffffffffffffffffff19169060200190929190505050610ee0565b604051808215151515815260200191505060405180910390f35b34801561025b57600080fd5b50610264610f80565b6040518080602001828103825283818151815260200191508051906020019080838360005b838110156102a4578082015181840152602081019050610289565b50505050905090810190601f1680156102d15780820380516001836020036101000a031916815260200191505b509250505060405180910390f35b3480156102eb57600080fd5b506103186004803603602081101561030257600080fd5b8101908080359060200190929190505050610fbd565b604051808273ffffffffffffffffffffffffffffffffffffffff1673ffffffffffffffffffffffffffffffffffffffff16815260200191505060405180910390f35b34801561036657600080fd5b506103b36004803603604081101561037d57600080fd5b81019080803573ffffffffffffffffffffffffffffffffffffffff1690602001909291908035906020019092919050505061100b565b005b3480156103c157600080fd5b506103ca611087565b6040518082815260200191505060405180910390f35b3480156103ec57600080fd5b506104596004803603606081101561040357600080fd5b81019080803573ffffffffffffffffffffffffffffffffffffffff169060200190929190803573ffffffffffffffffffffffffffffffffffffffff16906020019092919080359060200190929190505050611094565b005b34801561046757600080fd5b506104d46004803603606081101561047e57600080fd5b81019080803573ffffffffffffffffffffffffffffffffffffffff169060200190929190803573ffffffffffffffffffffffffffffffffffffffff169060200190929190803590602001909291905050506110b9565b005b3480156104e257600080fd5b5061050f600480360360208110156104f957600080fd5b81019080803590602001909291905050506110d9565b604051808273ffffffffffffffffffffffffffffffffffffffff1673ffffffffffffffffffffffffffffffffffffffff16815260200191505060405180910390f35b34801561055d57600080fd5b5061058a6004803603602081101561057457600080fd5b810190808035906020019092919050505061110c565b604051808273ffffffffffffffffffffffffffffffffffffffff1673ffffffffffffffffffffffffffffffffffffffff16815260200191505060405180910390f35b3480156105d857600080fd5b5061061b600480360360208110156105ef57600080fd5b81019080803573ffffffffffffffffffffffffffffffffffffffff169060200190929190505050611149565b6040518082815260200191505060405180910390f35b34801561063d57600080fd5b506106806004803603602081101561065457600080fd5b81019080803573ffffffffffffffffffffffffffffffffffffffff169060200190929190505050611161565b6040518082815260200191505060405180910390f35b3480156106a257600080fd5b506106e5600480360360208110156106b957600080fd5b81019080803573ffffffffffffffffffffffffffffffffffffffff1690602001909291905050506111aa565b6040518080602001828103825283818151815260200191508051906020019060200280838360005b8381101561072857808201518184015260208101905061070d565b505050509050019250505060405180910390f35b34801561074857600080fd5b506107516112f2565b604051808215151515815260200191505060405180910390f35b34801561077757600080fd5b506107a46004803603602081101561078e57600080fd5b8101908080359060200190929190505050611417565b604051808681526020018567ffffffffffffffff1667ffffffffffffffff1681526020018463ffffffff1663ffffffff1681526020018363ffffffff1663ffffffff1681526020018261ffff1661ffff1681526020019550505050505060405180910390f35b34801561081657600080fd5b5061081f61149c565b604051808273ffffffffffffffffffffffffffffffffffffffff1673ffffffffffffffffffffffffffffffffffffffff16815260200191505060405180910390f35b34801561086d57600080fd5b506108766114c1565b6040518080602001828103825283818151815260200191508051906020019080838360005b838110156108b657808201518184015260208101905061089b565b50505050905090810190601f1680156108e35780820380516001836020036101000a031916815260200191505b509250505060405180910390f35b3480156108fd57600080fd5b5061094c6004803603604081101561091457600080fd5b81019080803573ffffffffffffffffffffffffffffffffffffffff1690602001909291908035151590602001909291905050506114fe565b005b34801561095a57600080fd5b506109876004803603602081101561097157600080fd5b81019080803590602001909291905050506115af565b604051808273ffffffffffffffffffffffffffffffffffffffff1673ffffffffffffffffffffffffffffffffffffffff16815260200191505060405180910390f35b3480156109d557600080fd5b50610a22600480360360408110156109ec57600080fd5b81019080803573ffffffffffffffffffffffffffffffffffffffff169060200190929190803590602001909291905050506115e2565b005b610a5060048036036020811015610a3a57600080fd5b8101908080359060200190929190505050611795565b6040518082815260200191505060405180910390f35b348015610a7257600080fd5b50610a7b611841565b6040518080602001828103825283818151815260200191508051906020019080838360005b83811015610abb578082015181840152602081019050610aa0565b50505050905090810190601f168015610ae85780820380516001836020036101000a031916815260200191505b509250505060405180910390f35b348015610b0257600080fd5b50610b0b61187a565b6040518082815260200191505060405180910390f35b348015610b2d57600080fd5b50610c3160048036036080811015610b4457600080fd5b81019080803573ffffffffffffffffffffffffffffffffffffffff169060200190929190803573ffffffffffffffffffffffffffffffffffffffff1690602001909291908035906020019092919080359060200190640100000000811115610bab57600080fd5b820183602082011115610bbd57600080fd5b80359060200191846001830284011164010000000083111715610bdf57600080fd5b91908080601f016020809104026020016040519081016040528093929190818152602001838380828437600081840152601f19601f82011690508083019250505050505050919291929050505061187f565b005b348015610c3f57600080fd5b50610c486118a6565b6040518080602001828103825283818151815260200191508051906020019080838360005b83811015610c88578082015181840152602081019050610c6d565b50505050905090810190601f168015610cb55780820380516001836020036101000a031916815260200191505b509250505060405180910390f35b348015610ccf57600080fd5b50610cfc60048036036020811015610ce657600080fd5b81019080803590602001909291905050506118df565b6040518082815260200191505060405180910390f35b348015610d1e57600080fd5b50610d5560048036036040811015610d3557600080fd5b8101908080359060200190929190803590602001909291905050506119e0565b6040518082815260200191505060405180910390f35b348015610d7757600080fd5b50610d80611a94565b6040518082815260200191505060405180910390f35b348015610da257600080fd5b50610e0560048036036040811015610db957600080fd5b81019080803573ffffffffffffffffffffffffffffffffffffffff169060200190929190803573ffffffffffffffffffffffffffffffffffffffff169060200190929190505050611a99565b604051808215151515815260200191505060405180910390f35b348015610e2b57600080fd5b50610e5860048036036020811015610e4257600080fd5b8101908080359060200190929190505050611b2d565b604051808681526020018581526020018481526020018381526020018281526020019550505050505060405180910390f35b348015610e9657600080fd5b50610e9f611bdc565b6040518082815260200191505060405180910390f35b348015610ec157600080fd5b50610eca611be2565b6040518082815260200191505060405180910390f35b60006380ac58cd60e01b7bffffffffffffffffffffffffffffffffffffffffffffffffffffffff1916827bffffffffffffffffffffffffffffffffffffffffffffffffffffffff19161480610f7957506301ffc9a760e01b7bffffffffffffffffffffffffffffffffffffffffffffffffffffffff1916827bffffffffffffffffffffffffffffffffffffffffffffffffffffffff1916145b9050919050565b60606040518060400160405280600b81526020017f4b697474794b6974747973000000000000000000000000000000000000000000815250905090565b60006005805490508210610fd057600080fd5b6003600083815260200190815260200160002060009054906101000a900473ffffffffffffffffffffffffffffffffffffffff169050919050565b6110153382611be8565b61101e57600080fd5b6110288183611c54565b808273ffffffffffffffffffffffffffffffffffffffff163373ffffffffffffffffffffffffffffffffffffffff167f8c5be1e5ebec7d5bd14f71427d1e84f3dd0314c0f7b2291e5b200ac8c7c3b92560405160405180910390a45050565b6000600580549050905090565b6110a033848484611caa565b6110a957600080fd5b6110b4838383611d65565b505050565b6110d48383836040518060200160405280600081525061187f565b505050565b60036020528060005260406000206000915054906101000a900473ffffffffffffffffffffffffffffffffffffffff1681565b60006002600083815260200190815260200160002060009054906101000a900473ffffffffffffffffffffffffffffffffffffffff169050919050565b60016020528060005260406000206000915090505481565b6000600160008373ffffffffffffffffffffffffffffffffffffffff1673ffffffffffffffffffffffffffffffffffffffff168152602001908152602001600020549050919050565b606060006111b783611161565b905060008114156111fb5760006040519080825280602002602001820160405280156111f25781602001602082028038833980820191505090505b509150506112ed565b60608160405190808252806020026020018201604052801561122c5781602001602082028038833980820191505090505b5090506000611239611087565b9050600080905060008090505b828110156112e4578673ffffffffffffffffffffffffffffffffffffffff166002600083815260200190815260200160002060009054906101000a900473ffffffffffffffffffffffffffffffffffffffff1673ffffffffffffffffffffffffffffffffffffffff1614156112d757808483815181106112c257fe5b60200260200101818152505081806001019250505b8080600101915050611246565b83955050505050505b919050565b60008060009054906101000a900473ffffffffffffffffffffffffffffffffffffffff1673ffffffffffffffffffffffffffffffffffffffff163373ffffffffffffffffffffffffffffffffffffffff16146113b6576040517f08c379a000000000000000000000000000000000000000000000000000000000815260040180806020018281038252601d8152602001807f43616c6c6572206d75737420626520636f6e7472616374206f776e657200000081525060200191505060405180910390fd5b3373ffffffffffffffffffffffffffffffffffffffff166108fc3073ffffffffffffffffffffffffffffffffffffffff16319081150290604051600060405180830381858888f19350505050158015611413573d6000803e3d6000fd5b5090565b6005818154811061142457fe5b90600052602060002090600202016000915090508060000154908060010160009054906101000a900467ffffffffffffffff16908060010160089054906101000a900463ffffffff169080600101600c9054906101000a900463ffffffff16908060010160109054906101000a900461ffff16905085565b6000809054906101000a900473ffffffffffffffffffffffffffffffffffffffff1681565b60606040518060400160405280600381526020017f4b544b0000000000000000000000000000000000000000000000000000000000815250905090565b3373ffffffffffffffffffffffffffffffffffffffff168273ffffffffffffffffffffffffffffffffffffffff16141561153757600080fd5b611542338383611f21565b8173ffffffffffffffffffffffffffffffffffffffff163373ffffffffffffffffffffffffffffffffffffffff167f17307eab39ab6107e8899845ad3d59bd9653f200f220920489ca2b5937696c3183604051808215151515815260200191505060405180910390a35050565b60026020528060005260406000206000915054906101000a900473ffffffffffffffffffffffffffffffffffffffff1681565b600073ffffffffffffffffffffffffffffffffffffffff168273ffffffffffffffffffffffffffffffffffffffff161415611685576040517f08c379a00000000000000000000000000000000000000000000000000000000081526004018080602001828103825260158152602001807f6164647265737320646f65736e2774206578697374000000000000000000000081525060200191505060405180910390fd5b3073ffffffffffffffffffffffffffffffffffffffff168273ffffffffffffffffffffffffffffffffffffffff16141561170a576040517f08c379a00000000000000000000000000000000000000000000000000000000081526004018080602001828103825260228152602001806125b26022913960400191505060405180910390fd5b6117143382611be8565b611786576040517f08c379a000000000000000000000000000000000000000000000000000000000815260040180806020018281038252601e8152602001807f746f6b656e20646f65736e27742062656c6f6e6720746f2063616c6c6572000081525060200191505060405180910390fd5b611791338383611d65565b5050565b60006064600754106117a657600080fd5b6000809054906101000a900473ffffffffffffffffffffffffffffffffffffffff1673ffffffffffffffffffffffffffffffffffffffff163373ffffffffffffffffffffffffffffffffffffffff16141561180057600080fd5b66470de4df820000341461181357600080fd5b600760008154809291906001019190505550600061183660008060018633611fba565b905080915050919050565b6040518060400160405280600381526020017f4b544b000000000000000000000000000000000000000000000000000000000081525081565b600a81565b61188b33858585611caa565b61189457600080fd5b6118a084848484612185565b50505050565b6040518060400160405280600b81526020017f4b697474794b697474797300000000000000000000000000000000000000000081525081565b60008060009054906101000a900473ffffffffffffffffffffffffffffffffffffffff1673ffffffffffffffffffffffffffffffffffffffff163373ffffffffffffffffffffffffffffffffffffffff16146119a3576040517f08c379a000000000000000000000000000000000000000000000000000000000815260040180806020018281038252601d8152602001807f43616c6c6572206d75737420626520636f6e7472616374206f776e657200000081525060200191505060405180910390fd5b600a600654106119b257600080fd5b60066000815480929190600101919050555060006119d560008060008633611fba565b905080915050919050565b60006119ec3384611be8565b80156119fe57506119fd3383611be8565b5b611a0757600080fd5b600080611a1385611b2d565b94505050509150600080611a2686611b2d565b945050505091506000611a3985846121ab565b90506000809050828511611a5257600183019050611a77565b82851115611a725760018501905060028181611a6a57fe5b049050611a76565b8290505b5b611a84888a838533611fba565b5081965050505050505092915050565b606481565b6000600460008473ffffffffffffffffffffffffffffffffffffffff1673ffffffffffffffffffffffffffffffffffffffff16815260200190815260200160002060008373ffffffffffffffffffffffffffffffffffffffff1673ffffffffffffffffffffffffffffffffffffffff16815260200190815260200160002060009054906101000a900460ff16905092915050565b60008060008060008060058781548110611b4357fe5b90600052602060002090600202019050806000015495508060010160089054906101000a900463ffffffff1663ffffffff16945080600101600c9054906101000a900463ffffffff1663ffffffff1693508060010160009054906101000a900467ffffffffffffffff1667ffffffffffffffff1692508060010160109054906101000a900461ffff1661ffff1691505091939590929450565b60065481565b60075481565b60008273ffffffffffffffffffffffffffffffffffffffff166002600084815260200190815260200160002060009054906101000a900473ffffffffffffffffffffffffffffffffffffffff1673ffffffffffffffffffffffffffffffffffffffff1614905092915050565b806003600084815260200190815260200160002060006101000a81548173ffffffffffffffffffffffffffffffffffffffff021916908373ffffffffffffffffffffffffffffffffffffffff1602179055505050565b6000611cb68483611be8565b611cbf57600080fd5b600073ffffffffffffffffffffffffffffffffffffffff168373ffffffffffffffffffffffffffffffffffffffff161415611cf957600080fd5b6005805490508210611d0a57600080fd5b8373ffffffffffffffffffffffffffffffffffffffff168573ffffffffffffffffffffffffffffffffffffffff161480611d4a5750611d4985836122ad565b5b80611d5b5750611d5a8486611a99565b5b9050949350505050565b600160008373ffffffffffffffffffffffffffffffffffffffff1673ffffffffffffffffffffffffffffffffffffffff16815260200190815260200160002060008154809291906001019190505550816002600083815260200190815260200160002060006101000a81548173ffffffffffffffffffffffffffffffffffffffff021916908373ffffffffffffffffffffffffffffffffffffffff160217905550600073ffffffffffffffffffffffffffffffffffffffff168373ffffffffffffffffffffffffffffffffffffffff1614611ec157600160008473ffffffffffffffffffffffffffffffffffffffff1673ffffffffffffffffffffffffffffffffffffffff16815260200190815260200160002060008154809291906001900391905055506003600082815260200190815260200160002060006101000a81549073ffffffffffffffffffffffffffffffffffffffff02191690555b808273ffffffffffffffffffffffffffffffffffffffff168473ffffffffffffffffffffffffffffffffffffffff167fddf252ad1be2c89b69c2b068fc378daa952ba7f163c4a11628f55a4df523b3ef60405160405180910390a4505050565b80600460008573ffffffffffffffffffffffffffffffffffffffff1673ffffffffffffffffffffffffffffffffffffffff16815260200190815260200160002060008473ffffffffffffffffffffffffffffffffffffffff1673ffffffffffffffffffffffffffffffffffffffff16815260200190815260200160002060006101000a81548160ff021916908315150217905550505050565b6000611fc4612516565b6040518060a001604052808581526020014267ffffffffffffffff1681526020018863ffffffff1681526020018763ffffffff1681526020018661ffff16815250905060006001600583908060018154018082558091505090600182039060005260206000209060020201600090919290919091506000820151816000015560208201518160010160006101000a81548167ffffffffffffffff021916908367ffffffffffffffff16021790555060408201518160010160086101000a81548163ffffffff021916908363ffffffff160217905550606082015181600101600c6101000a81548163ffffffff021916908363ffffffff16021790555060808201518160010160106101000a81548161ffff021916908361ffff16021790555050500390507f0a5311bd2a6608f08a180df2ee7c5946819a649b204b554bb8e39825b2c50ad584828a8a89604051808673ffffffffffffffffffffffffffffffffffffffff1673ffffffffffffffffffffffffffffffffffffffff1681526020018581526020018481526020018381526020018281526020019550505050505060405180910390a161217760008583611d65565b809250505095945050505050565b612190848484611d65565b61219c84848484612319565b6121a557600080fd5b50505050565b60006121b561255f565b600060ff42816121c157fe5b06905060008060079050600191505b6080821161225f576000828460ff16161461220d57606487816121ef57fe5b0660ff168482600881106121ff57fe5b602002018181525050612231565b6064868161221757fe5b0660ff1684826008811061222757fe5b6020020181815250505b6064868161223b57fe5b0495506064878161224857fe5b0496508080600190039150506002820291506121d0565b60008092505b600883101561229f5784836008811061227a57fe5b60200201518101905060078314612292576064810290505b8280600101935050612265565b809550505050505092915050565b60008273ffffffffffffffffffffffffffffffffffffffff166003600084815260200190815260200160002060009054906101000a900473ffffffffffffffffffffffffffffffffffffffff1673ffffffffffffffffffffffffffffffffffffffff1614905092915050565b6000612324846124fd565b61233157600190506124f5565b60008473ffffffffffffffffffffffffffffffffffffffff1663150b7a02338887876040518563ffffffff1660e01b8152600401808573ffffffffffffffffffffffffffffffffffffffff1673ffffffffffffffffffffffffffffffffffffffff1681526020018473ffffffffffffffffffffffffffffffffffffffff1673ffffffffffffffffffffffffffffffffffffffff16815260200183815260200180602001828103825283818151815260200191508051906020019080838360005b8381101561240c5780820151818401526020810190506123f1565b50505050905090810190601f1680156124395780820380516001836020036101000a031916815260200191505b5095505050505050602060405180830381600087803b15801561245b57600080fd5b505af115801561246f573d6000803e3d6000fd5b505050506040513d602081101561248557600080fd5b810190808051906020019092919050505090506040518080612583602f9139602f01905060405180910390207bffffffffffffffffffffffffffffffffffffffffffffffffffffffff1916817bffffffffffffffffffffffffffffffffffffffffffffffffffffffff1916149150505b949350505050565b600080823b905060008163ffffffff1611915050919050565b6040518060a0016040528060008152602001600067ffffffffffffffff168152602001600063ffffffff168152602001600063ffffffff168152602001600061ffff1681525090565b60405180610100016040528060089060208202803883398082019150509050509056fe6f6e455243373231526563656976656428616464726573732c616464726573732c75696e743235362c627974657329616464726573732063616e6e6f7420626520636f6e74726163742061646472657373a265627a7a72315820d092b43339df7037a64de5fb3db97547ddcd874365787d505ae9974d3c6a67df64736f6c634300050c0032",
  "source": "pragma solidity ^0.5.12;\n\nimport \"./IERC721.sol\";\nimport \"./IERC721Receiver.sol\";\nimport \"./Ownable.sol\";\n\ncontract Kittycontract is IERC721, Ownable {\n    mapping(address => uint256) public tokenHolders;\n    mapping(uint256 => address) public kittyOwners;\n\n    mapping(uint256 => address) public kittyIndexToApproved;\n    mapping(address => mapping(address => bool)) private _operatorApprovals;\n\n    uint256 public constant CREATION_LIMIT_GEN0 = 10;\n    uint256 public constant CREATION_LIMIT_USER = 100;\n    string public constant _name = \"KittyKittys\";\n    string public constant _symbol = \"KTK\";\n\n    bytes4 internal constant MAGIC_ERC721_RECEIVED = bytes4(keccak256(\"onERC721Received(address,address,uint256,bytes)\"));\n    bytes4 private constant _INTERFACE_ID_ERC721 = 0x80ac58cd;\n    bytes4 private constant _INTERFACE_ID_ERC165 = 0x01ffc9a7;\n\n    Kitty[] public kitties;\n\n    struct Kitty {\n        uint256 genes;\n        uint64 birthTime;\n        uint32 mumId;\n        uint32 dadId;\n        uint16 generation;\n    }\n\n    event Transfer(address indexed from, address indexed to, uint256 indexed tokenId);\n    event Approval(address indexed owner, address indexed approved, uint256 indexed tokenId);\n    event ApprovalForAll(address indexed owner, address indexed operator, bool approved);\n    event Birth(\n        address owner, \n        uint256 kittenId, \n        uint256 mumId, \n        uint256 dadId, \n        uint256 genes\n    );\n\n    uint256 public gen0Counter;\n    uint256 public userCounter;\n\n    constructor() public {\n        _createKitty(0, 0, 0, uint256(-1), address(0));\n    }\n\n    // SETTER FUNCTIONS\n    function createKittyGen0(uint256 _genes) public onlyOwner returns (uint256) {\n       require(gen0Counter < CREATION_LIMIT_GEN0);\n       gen0Counter++;\n\n       uint256 kittyId = _createKitty(0,0,0,_genes,msg.sender);\n       return kittyId;\n    }\n\n    function createKitty(uint256 _genes) public payable returns (uint256) {\n       require(userCounter < CREATION_LIMIT_USER);\n       require(msg.sender!= owner);\n       require(msg.value == .02 ether);\n       userCounter++;\n\n       uint256 kittyId = _createKitty(0,0,1,_genes,msg.sender);\n       return kittyId;\n    }\n    \n    function breed(uint256 _dadId, uint256 _mumId) public returns (uint256) {\n       require(_owns(msg.sender, _dadId) && _owns(msg.sender, _mumId));\n\n       ( uint256 dadDna,,,,uint256 dad_generation ) = getKitty(_dadId);\n       ( uint256 mumDna,,,,uint256 mum_generation ) = getKitty(_mumId);\n       uint256 newDna = _mixDna(dadDna, mumDna);\n       uint256 kidGen = 0;\n\n       if(dad_generation <= mum_generation){\n          kidGen = mum_generation + 1;\n       }\n       else if (dad_generation > mum_generation){\n          kidGen = dad_generation + 1;\n          kidGen /= 2;\n       } \n       else{\n          kidGen = mum_generation;\n       }\n       _createKitty( _mumId, _dadId, uint16(kidGen), newDna, msg.sender);\n       return newDna;\n    }\n\n    function _mixDna(uint256 _dadDna, uint256 _mumDna) internal view returns (uint256) {\n       uint256[8] memory geneArray;\n       uint8 random = uint8( now % 255 );\n       uint256 i;\n       uint256 index = 7;\n       // Loop thru random number with bitwise operator(&)\n       for(i = 1; i <= 128; i = i*2){\n           if(random & i != 0){\n               geneArray[index] = uint8( _dadDna % 100 );\n           }\n           else{\n               geneArray[index] = uint8( _mumDna % 100 );\n           }\n           _mumDna = _mumDna / 100;\n           _dadDna = _dadDna / 100;\n           index --;\n       }\n       // create new Gene from geneArray\n       uint256 newGene;\n       for( i = 0; i < 8; i++){\n           newGene = newGene + geneArray[i];\n           if(i != 7){\n           newGene = newGene * 100;\n           }  \n       }\n       return newGene;\n    }\n\n    function _createKitty(\n        uint256 _mumId, \n        uint256 _dadId, \n        uint16 _generation, \n        uint256 _genes, \n        address _owner\n    )private returns (uint256) {\n            Kitty memory _kitty = Kitty({\n            genes: _genes,\n            birthTime: uint64(now),\n            mumId: uint32(_mumId),\n            dadId: uint32(_dadId),\n            generation: uint16(_generation)\n        });\n\n        uint256 newKittenId = kitties.push(_kitty) - 1;\n        emit Birth(_owner, newKittenId, _mumId, _dadId, _genes);\n        \n        _transfer(address(0), _owner, newKittenId);\n        return newKittenId;\n    }\n\n    function setApprovalForAll(address _operator, bool _approved) public {\n        require(_operator != msg.sender);\n\n        _setApprovalForAll(msg.sender, _operator, _approved);\n        emit ApprovalForAll(msg.sender, _operator, _approved);\n    }\n\n    // TRANSFER AND APPROVAL FUNCTIONS\n    function transfer(address _to, uint256 kittenId) public {\n        require (_to != address(0), \"address doesn't exist\" );\n        require (_to != address(this), \"address cannot be contract address\");\n        require (_owns(msg.sender, kittenId), \"token doesn't belong to caller\");\n\n        _transfer(msg.sender, _to, kittenId);\n    }\n\n    function approve(address _approved, uint256 kittenId) public {\n        require(_owns(msg.sender, kittenId));\n\n        _approve(kittenId, _approved);\n        emit Approval(msg.sender, _approved, kittenId);\n    }\n\n    function _safeTransfer(address _from, address _to, uint256 kittenId, bytes memory _data) internal { \n        _transfer(_from, _to, kittenId);\n        require(_checkERC721Support(_from, _to, kittenId, _data));\n    } \n\n    function _transfer( address _from, address _to, uint256 kittenId) internal { \n        tokenHolders[_to]++;\n        kittyOwners[kittenId] = _to;\n\n        if (_from != address(0)){\n           tokenHolders[_from]--;\n           delete kittyIndexToApproved[kittenId];\n        }\n    \n        emit Transfer(_from, _to, kittenId);\n    }\n\n    function transferFrom(address _from, address _to, uint256 kittenId) public {\n        require( _isApprovedOrOwner(msg.sender, _from, _to, kittenId) );   \n        _transfer(_from, _to, kittenId);\n    }\n\n    function safeTransferFrom(address _from, address _to, uint256 kittenId, bytes memory data) public {\n        require( _isApprovedOrOwner(msg.sender, _from, _to, kittenId) ); \n        _safeTransfer(_from, _to, kittenId, data);\n    }\n\n    function safeTransferFrom(address _from, address _to, uint256 kittenId) public {\n        safeTransferFrom(_from, _to, kittenId, \"\");\n    }\n\n    function _approve(uint256 _kittenId, address _approved) internal {\n        kittyIndexToApproved[_kittenId] = _approved;\n    }\n\n    function _setApprovalForAll(address _owner, address _operator, bool _approved) internal {\n        _operatorApprovals[_owner][_operator] = _approved;\n    }\n\n    function withdrawAll() public onlyOwner returns(bool) { \n        msg.sender.transfer(address(this).balance);\n    }\n\n    // GETTER FUNCTIONS\n    function _checkERC721Support(address _from, address _to, uint256 kittenId, bytes memory _data) internal returns (bool) {\n        if (!_isContract(_to) ){\n            return true;\n        }\n        bytes4 returnData = IERC721Receiver(_to).onERC721Received(msg.sender, _from, kittenId, _data);\n        return returnData == MAGIC_ERC721_RECEIVED;\n    }\n\n    function getKitty(uint256 _kittenId) public view returns (\n        uint256 genes,\n        uint256 mumId, \n        uint256 dadId, \n        uint256 birthTime, \n        uint256 generation\n    )\n    {\n        Kitty storage kitty = kitties[_kittenId];\n        \n        genes = uint256(kitty.genes); \n        mumId = uint256(kitty.mumId);\n        dadId = uint256(kitty.dadId);\n        birthTime = uint256(kitty.birthTime); \n        generation = uint256(kitty.generation);\n    }\n\n    function tokensOfOwner(address _owner) public view returns(uint256[] memory ownerTokens) {\n        uint256 tokenCount = balanceOf(_owner);\n\n        if (tokenCount == 0) {\n            return new uint256[](0);\n        } \n        else {\n            uint256[] memory result = new uint256[](tokenCount);\n            uint256 totalCats = totalSupply();\n            uint256 resultIndex = 0;\n\n            uint256 catId;\n\n            for (catId = 0; catId < totalCats; catId++) {\n                if (kittyOwners[catId] == _owner) {\n                    result[resultIndex] = catId;\n                    resultIndex++;\n                }\n            }\n            return result;\n            }\n    }\n\n    function _isContract(address _to) internal view returns (bool) {\n        uint32 size;\n        assembly{\n            size := extcodesize(_to)\n        }\n        return size > 0;\n    }\n\n    function _owns(address _claimer, uint256 kittenId) internal view returns (bool) {\n        return kittyOwners[kittenId] == _claimer;\n    }\n\n    function _approvedFor( address _claimant, uint256 kittenId) internal view returns (bool) {\n        return kittyIndexToApproved[kittenId] == _claimant;\n    }\n\n    function _isApprovedOrOwner( address _sender, address _from, address _to, uint256 kittenId) internal view returns (bool){\n        require (_owns(_from, kittenId)); //_from owns the token\n        require (_to != address(0)); // _to address is not zero address\n        require (kittenId < kitties.length); //Token must exist\n\n        //Sender is from OR sender is approved for kittenId OR approvalForAll from _from\n        return (_sender == _from\n        || _approvedFor(_sender, kittenId)\n        || isApprovedForAll(_from, _sender));\n    }\n\n    function getApproved(uint256 _kittenId) public view returns (address){\n        require (_kittenId < kitties.length);\n\n        return kittyIndexToApproved[_kittenId];\n    }\n\n    function isApprovedForAll(address _owner, address _operator) public view returns (bool){\n        return _operatorApprovals[_owner][_operator];\n    }\n\n    function supportsInterface(bytes4 _interfaceId) external pure returns (bool) {\n        return ( _interfaceId == _INTERFACE_ID_ERC721 || _interfaceId == _INTERFACE_ID_ERC165);\n    }\n\n    function balanceOf(address owner) public view returns (uint256 balance) {\n        return tokenHolders[owner];\n    }\n   \n    function totalSupply() public view returns (uint256 total) {\n        return kitties.length;\n    }\n  \n    function name() external view returns (string memory tokenName) {\n        return _name;\n    }\n\n    function symbol() external view returns (string memory tokenSymbol) {\n        return _symbol;\n    }\n\n    function ownerOf(uint256 kittenId) public view returns (address owner) {\n        return kittyOwners[kittenId];\n    }  \n}",
  "sourcePath": "/Users/user/Documents/cryptoKitties-clone/github/academy-kitties-template/contracts/KittyKitty.sol",
  "compiler": {
    "name": "solc",
    "version": "0.5.12+commit.7709ece9.Emscripten.clang"
  },
  "schemaVersion": "3.0.16",
  "updatedAt": "2021-05-14T05:16:36.501Z",
  "devdoc": {
    "methods": {}
  },
  "userdoc": {
    "methods": {}
  }
}