{
  "contractName": "KittyMarketPlace",
  "abi": [
    {
      "inputs": [
        {
          "internalType": "address",
          "name": "_kittyContractAddress",
          "type": "address"
        }
      ],
      "payable": false,
      "stateMutability": "nonpayable",
      "type": "constructor"
    },
    {
      "anonymous": false,
      "inputs": [
        {
          "indexed": false,
          "internalType": "string",
          "name": "TxType",
          "type": "string"
        },
        {
          "indexed": false,
          "internalType": "address",
          "name": "owner",
          "type": "address"
        },
        {
          "indexed": false,
          "internalType": "uint256",
          "name": "kittenId",
          "type": "uint256"
        }
      ],
      "name": "MarketTransaction",
      "type": "event"
    },
    {
      "constant": true,
      "inputs": [
        {
          "internalType": "uint256",
          "name": "",
          "type": "uint256"
        }
      ],
      "name": "offers",
      "outputs": [
        {
          "internalType": "address payable",
          "name": "seller",
          "type": "address"
        },
        {
          "internalType": "uint256",
          "name": "price",
          "type": "uint256"
        },
        {
          "internalType": "uint256",
          "name": "index",
          "type": "uint256"
        },
        {
          "internalType": "uint256",
          "name": "kittenId",
          "type": "uint256"
        },
        {
          "internalType": "bool",
          "name": "active",
          "type": "bool"
        }
      ],
      "payable": false,
      "stateMutability": "view",
      "type": "function"
    },
    {
      "constant": true,
      "inputs": [],
      "name": "owner",
      "outputs": [
        {
          "internalType": "address payable",
          "name": "",
          "type": "address"
        }
      ],
      "payable": false,
      "stateMutability": "view",
      "type": "function"
    },
    {
      "constant": false,
      "inputs": [
        {
          "internalType": "address",
          "name": "_kittyContractAddress",
          "type": "address"
        }
      ],
      "name": "setKittyContract",
      "outputs": [],
      "payable": false,
      "stateMutability": "nonpayable",
      "type": "function"
    },
    {
      "constant": false,
      "inputs": [
        {
          "internalType": "uint256",
          "name": "_price",
          "type": "uint256"
        },
        {
          "internalType": "uint256",
          "name": "_kittenId",
          "type": "uint256"
        }
      ],
      "name": "setOffer",
      "outputs": [],
      "payable": false,
      "stateMutability": "nonpayable",
      "type": "function"
    },
    {
      "constant": false,
      "inputs": [
        {
          "internalType": "uint256",
          "name": "kittenId",
          "type": "uint256"
        }
      ],
      "name": "removeOffer",
      "outputs": [],
      "payable": false,
      "stateMutability": "nonpayable",
      "type": "function"
    },
    {
      "constant": false,
      "inputs": [
        {
          "internalType": "uint256",
          "name": "kittenId",
          "type": "uint256"
        }
      ],
      "name": "buyKitty",
      "outputs": [],
      "payable": true,
      "stateMutability": "payable",
      "type": "function"
    },
    {
      "constant": true,
      "inputs": [
        {
          "internalType": "uint256",
          "name": "_kittenId",
          "type": "uint256"
        }
      ],
      "name": "getOffer",
      "outputs": [
        {
          "internalType": "address",
          "name": "seller",
          "type": "address"
        },
        {
          "internalType": "uint256",
          "name": "price",
          "type": "uint256"
        },
        {
          "internalType": "uint256",
          "name": "index",
          "type": "uint256"
        },
        {
          "internalType": "uint256",
          "name": "kittenId",
          "type": "uint256"
        },
        {
          "internalType": "bool",
          "name": "active",
          "type": "bool"
        }
      ],
      "payable": false,
      "stateMutability": "view",
      "type": "function"
    },
    {
      "constant": true,
      "inputs": [],
      "name": "getAllTokenOnSale",
      "outputs": [
        {
          "internalType": "uint256[]",
          "name": "listOfOffers",
          "type": "uint256[]"
        }
      ],
      "payable": false,
      "stateMutability": "view",
      "type": "function"
    }
  ],
  "bytecode": "0x608060405234801561001057600080fd5b506040516115db3803806115db8339818101604052602081101561003357600080fd5b8101908080519060200190929190505050336000806101000a81548173ffffffffffffffffffffffffffffffffffffffff021916908373ffffffffffffffffffffffffffffffffffffffff1602179055506100938161009960201b60201c565b5061019f565b6000809054906101000a900473ffffffffffffffffffffffffffffffffffffffff1673ffffffffffffffffffffffffffffffffffffffff163373ffffffffffffffffffffffffffffffffffffffff161461015b576040517f08c379a000000000000000000000000000000000000000000000000000000000815260040180806020018281038252601d8152602001807f43616c6c6572206d75737420626520636f6e7472616374206f776e657200000081525060200191505060405180910390fd5b80600160006101000a81548173ffffffffffffffffffffffffffffffffffffffff021916908373ffffffffffffffffffffffffffffffffffffffff16021790555050565b61142d806101ae6000396000f3fe60806040526004361061007b5760003560e01c80638da5cb5b1161004e5780638da5cb5b14610273578063941b055b146102ca57806395a0f9c71461030f578063ae5310f61461034a5761007b565b80634579268a1461008057806349b3709f1461011b57806362b7f94e146101875780638a72ea6a146101d8575b600080fd5b34801561008c57600080fd5b506100b9600480360360208110156100a357600080fd5b8101908080359060200190929190505050610378565b604051808673ffffffffffffffffffffffffffffffffffffffff1673ffffffffffffffffffffffffffffffffffffffff168152602001858152602001848152602001838152602001821515151581526020019550505050505060405180910390f35b34801561012757600080fd5b506101306103f0565b6040518080602001828103825283818151815260200191508051906020019060200280838360005b83811015610173578082015181840152602081019050610158565b505050509050019250505060405180910390f35b34801561019357600080fd5b506101d6600480360360208110156101aa57600080fd5b81019080803573ffffffffffffffffffffffffffffffffffffffff169060200190929190505050610507565b005b3480156101e457600080fd5b50610211600480360360208110156101fb57600080fd5b810190808035906020019092919050505061060d565b604051808673ffffffffffffffffffffffffffffffffffffffff1673ffffffffffffffffffffffffffffffffffffffff168152602001858152602001848152602001838152602001821515151581526020019550505050505060405180910390f35b34801561027f57600080fd5b5061028861067d565b604051808273ffffffffffffffffffffffffffffffffffffffff1673ffffffffffffffffffffffffffffffffffffffff16815260200191505060405180910390f35b3480156102d657600080fd5b5061030d600480360360408110156102ed57600080fd5b8101908080359060200190929190803590602001909291905050506106a2565b005b34801561031b57600080fd5b506103486004803603602081101561033257600080fd5b8101908080359060200190929190505050610b4b565b005b6103766004803603602081101561036057600080fd5b8101908080359060200190929190505050610dd6565b005b6000806000806000806003600088815260200190815260200160002090508060000160009054906101000a900473ffffffffffffffffffffffffffffffffffffffff1695508060010154945080600201549350806003015492508060040160009054906101000a900460ff1691505091939590929450565b606060006002805490509050600081141561043e5760006040519080825280602002602001820160405280156104355781602001602082028038833980820191505090505b50915050610504565b60608160405190808252806020026020018201604052801561046f5781602001602082028038833980820191505090505b50905060008090505b828110156104fd57600115156002828154811061049157fe5b906000526020600020906005020160040160009054906101000a900460ff16151514156104f057600281815481106104c557fe5b9060005260206000209060050201600301548282815181106104e357fe5b6020026020010181815250505b8080600101915050610478565b8193505050505b90565b6000809054906101000a900473ffffffffffffffffffffffffffffffffffffffff1673ffffffffffffffffffffffffffffffffffffffff163373ffffffffffffffffffffffffffffffffffffffff16146105c9576040517f08c379a000000000000000000000000000000000000000000000000000000000815260040180806020018281038252601d8152602001807f43616c6c6572206d75737420626520636f6e7472616374206f776e657200000081525060200191505060405180910390fd5b80600160006101000a81548173ffffffffffffffffffffffffffffffffffffffff021916908373ffffffffffffffffffffffffffffffffffffffff16021790555050565b6002818154811061061a57fe5b90600052602060002090600502016000915090508060000160009054906101000a900473ffffffffffffffffffffffffffffffffffffffff16908060010154908060020154908060030154908060040160009054906101000a900460ff16905085565b6000809054906101000a900473ffffffffffffffffffffffffffffffffffffffff1681565b6106ac3382611247565b61071e576040517f08c379a000000000000000000000000000000000000000000000000000000000815260040180806020018281038252601a8152602001807f796f7520617265206e6f74206f776e6572206f66204b6974747900000000000081525060200191505060405180910390fd5b600015156003600083815260200190815260200160002060040160009054906101000a900460ff1615151461079e576040517f08c379a00000000000000000000000000000000000000000000000000000000081526004018080602001828103825260238152602001806113d66023913960400191505060405180910390fd5b600160009054906101000a900473ffffffffffffffffffffffffffffffffffffffff1673ffffffffffffffffffffffffffffffffffffffff1663e985e9c533306040518363ffffffff1660e01b8152600401808373ffffffffffffffffffffffffffffffffffffffff1673ffffffffffffffffffffffffffffffffffffffff1681526020018273ffffffffffffffffffffffffffffffffffffffff1673ffffffffffffffffffffffffffffffffffffffff1681526020019250505060206040518083038186803b15801561087157600080fd5b505afa158015610885573d6000803e3d6000fd5b505050506040513d602081101561089b57600080fd5b8101908080519060200190929190505050610901576040517f08c379a000000000000000000000000000000000000000000000000000000000815260040180806020018281038252603d815260200180611375603d913960400191505060405180910390fd5b61090961132d565b6040518060a001604052803373ffffffffffffffffffffffffffffffffffffffff1681526020018481526020016002805490508152602001838152602001600115158152509050806003600084815260200190815260200160002060008201518160000160006101000a81548173ffffffffffffffffffffffffffffffffffffffff021916908373ffffffffffffffffffffffffffffffffffffffff16021790555060208201518160010155604082015181600201556060820151816003015560808201518160040160006101000a81548160ff0219169083151502179055509050506002819080600181540180825580915050906001820390600052602060002090600502016000909192909190915060008201518160000160006101000a81548173ffffffffffffffffffffffffffffffffffffffff021916908373ffffffffffffffffffffffffffffffffffffffff16021790555060208201518160010155604082015181600201556060820151816003015560808201518160040160006101000a81548160ff0219169083151502179055505050507fd99e4fad9ad6313b1feb588fa8e605e3a9873172f2024330c35dd2b4041a4386338360405180806020018473ffffffffffffffffffffffffffffffffffffffff1673ffffffffffffffffffffffffffffffffffffffff1681526020018381526020018281038252600c8152602001807f437265617465206f666665720000000000000000000000000000000000000000815250602001935050505060405180910390a1505050565b610b5361132d565b600360008381526020019081526020016000206040518060a00160405290816000820160009054906101000a900473ffffffffffffffffffffffffffffffffffffffff1673ffffffffffffffffffffffffffffffffffffffff1673ffffffffffffffffffffffffffffffffffffffff1681526020016001820154815260200160028201548152602001600382015481526020016004820160009054906101000a900460ff16151515158152505090503373ffffffffffffffffffffffffffffffffffffffff16816000015173ffffffffffffffffffffffffffffffffffffffff1614610c8a576040517f08c379a00000000000000000000000000000000000000000000000000000000081526004018080602001828103825260248152602001806113b26024913960400191505060405180910390fd5b60036000838152602001908152602001600020600080820160006101000a81549073ffffffffffffffffffffffffffffffffffffffff02191690556001820160009055600282016000905560038201600090556004820160006101000a81549060ff0219169055505060006002826040015181548110610d0657fe5b906000526020600020906005020160040160006101000a81548160ff0219169083151502179055507fd99e4fad9ad6313b1feb588fa8e605e3a9873172f2024330c35dd2b4041a4386338360405180806020018473ffffffffffffffffffffffffffffffffffffffff1673ffffffffffffffffffffffffffffffffffffffff1681526020018381526020018281038252600c8152602001807f52656d6f7665206f666665720000000000000000000000000000000000000000815250602001935050505060405180910390a15050565b610dde61132d565b600360008381526020019081526020016000206040518060a00160405290816000820160009054906101000a900473ffffffffffffffffffffffffffffffffffffffff1673ffffffffffffffffffffffffffffffffffffffff1673ffffffffffffffffffffffffffffffffffffffff1681526020016001820154815260200160028201548152602001600382015481526020016004820160009054906101000a900460ff161515151581525050905080602001513414610f06576040517f08c379a000000000000000000000000000000000000000000000000000000000815260040180806020018281038252601b8152602001807f546865207061796d656e7420697320696e73756666696369656e74000000000081525060200191505060405180910390fd5b600115156003600084815260200190815260200160002060040160009054906101000a900460ff16151514610fa3576040517f08c379a00000000000000000000000000000000000000000000000000000000081526004018080602001828103825260178152602001807f4e6f20616374697665206f726465722070726573656e7400000000000000000081525060200191505060405180910390fd5b60036000838152602001908152602001600020600080820160006101000a81549073ffffffffffffffffffffffffffffffffffffffff02191690556001820160009055600282016000905560038201600090556004820160006101000a81549060ff021916905550506000600282604001518154811061101f57fe5b906000526020600020906005020160040160006101000a81548160ff0219169083151502179055506000816000015190506000826020015111156110a9578073ffffffffffffffffffffffffffffffffffffffff166108fc83602001519081150290604051600060405180830381858888f193505050501580156110a7573d6000803e3d6000fd5b505b600160009054906101000a900473ffffffffffffffffffffffffffffffffffffffff1673ffffffffffffffffffffffffffffffffffffffff166323b872dd8233866040518463ffffffff1660e01b8152600401808473ffffffffffffffffffffffffffffffffffffffff1673ffffffffffffffffffffffffffffffffffffffff1681526020018373ffffffffffffffffffffffffffffffffffffffff1673ffffffffffffffffffffffffffffffffffffffff1681526020018281526020019350505050600060405180830381600087803b15801561118657600080fd5b505af115801561119a573d6000803e3d6000fd5b505050507fd99e4fad9ad6313b1feb588fa8e605e3a9873172f2024330c35dd2b4041a4386338460405180806020018473ffffffffffffffffffffffffffffffffffffffff1673ffffffffffffffffffffffffffffffffffffffff168152602001838152602001828103825260038152602001807f4275790000000000000000000000000000000000000000000000000000000000815250602001935050505060405180910390a1505050565b60008273ffffffffffffffffffffffffffffffffffffffff16600160009054906101000a900473ffffffffffffffffffffffffffffffffffffffff1673ffffffffffffffffffffffffffffffffffffffff16636352211e846040518263ffffffff1660e01b81526004018082815260200191505060206040518083038186803b1580156112d357600080fd5b505afa1580156112e7573d6000803e3d6000fd5b505050506040513d60208110156112fd57600080fd5b810190808051906020019092919050505073ffffffffffffffffffffffffffffffffffffffff1614905092915050565b6040518060a00160405280600073ffffffffffffffffffffffffffffffffffffffff168152602001600081526020016000815260200160008152602001600015158152509056fe436f6e7472616374206e6565647320746f20626520617070726f76656420746f207472616e73666572204b6974747920696e2074686520667574757265596f7520617265206e6f74207468652073656c6c6572206f662074686973204b69747479596f752063616e27742073656c6c207468652073616d65206f72646572207477696365a265627a7a723158209157cfa6ece3a7317bb6bcf20c62961043261b7f7e598aed4202d0145f0b770064736f6c634300050c0032",
  "source": "pragma solidity ^0.5.0;\n\nimport \"./KittyKitty.sol\";\nimport \"./Ownable.sol\";\nimport \"./IKittyMarketPlace.sol\";\n\ncontract KittyMarketPlace is Ownable, IKittyMarketPlace {\n    Kittycontract private _kittyContract;\n\n    struct Offer{\n        address payable seller;\n        uint256 price;\n        uint256 index;\n        uint256 kittenId;\n        bool active;\n    }\n\n    Offer[] public offers;\n\n    mapping(uint256 => Offer) tokenIdToOffer;\n\n    event MarketTransaction(string TxType, address owner, uint256 kittenId);\n\n    constructor(address _kittyContractAddress) public {\n        setKittyContract(_kittyContractAddress);\n    }\n\n    // SETTER FUNCTIONS\n    function setKittyContract(address _kittyContractAddress) public onlyOwner{\n        _kittyContract = Kittycontract(_kittyContractAddress);\n    }\n\n    function setOffer(uint256 _price, uint256 _kittenId) public{\n        require(_ownsKitty(msg.sender, _kittenId), \"you are not owner of Kitty\");\n        require(tokenIdToOffer[_kittenId].active == false, \"You can't sell the same order twice\"); \n        require(_kittyContract.isApprovedForAll(msg.sender,address(this)), \"Contract needs to be approved to transfer Kitty in the future\");\n\n        Offer memory newOffer = Offer({\n        seller: msg.sender,\n        price: _price,\n        index: offers.length,\n        kittenId: _kittenId,\n        active: true\n        });\n\n        tokenIdToOffer[_kittenId] = newOffer;\n        offers.push(newOffer);\n\n        emit MarketTransaction(\"Create offer\", msg.sender, _kittenId);\n    }\n\n    function removeOffer(uint256 kittenId) public{\n        Offer memory _offer = tokenIdToOffer[kittenId];\n        require(_offer.seller == msg.sender, \"You are not the seller of this Kitty\");\n        \n        delete tokenIdToOffer[kittenId];\n        offers[_offer.index].active = false;\n\n        emit MarketTransaction(\"Remove offer\", msg.sender, kittenId);\n    }\n\n    function buyKitty(uint256 kittenId) public payable{\n        Offer memory _offer = tokenIdToOffer[kittenId];\n\n        require(msg.value == _offer.price, \"The payment is insufficient\");\n        require(tokenIdToOffer[kittenId].active == true, \"No active order present\");\n\n        // Delete Kitty from the mapping before paying out to prevent reentry attack \n        delete tokenIdToOffer[kittenId];\n        offers[_offer.index].active = false;\n        address payable seller = _offer.seller;\n        \n        //tranfer the funds to the seller\n        if (_offer.price > 0){\n            seller.transfer(_offer.price);\n        }\n\n        // Transfer ownership of the kitty\n        _kittyContract.transferFrom(seller, msg.sender, kittenId);\n\n        emit MarketTransaction(\"Buy\", msg.sender, kittenId);\n    } \n    \n    // GETTER FUNCTIONS\n    function getOffer(uint256 _kittenId) public view returns ( address seller, uint256 price, uint256 index, uint256 kittenId, bool active){\n       \n        Offer storage currentOffer = tokenIdToOffer[_kittenId];\n\n        seller = currentOffer.seller;\n        price = currentOffer.price;\n        index = currentOffer.index;\n        kittenId = currentOffer.kittenId;\n        active = currentOffer.active;\n    }\n\n    function getAllTokenOnSale() public view returns(uint256[] memory listOfOffers){\n        uint256 totalOffers = offers.length;\n        \n        if(totalOffers == 0){\n            return new uint256[](0);\n        } else{\n            uint256[] memory result = new uint256[](totalOffers);\n            uint256 offerId;\n            for (offerId = 0; offerId < totalOffers; offerId++){\n                if(offers[offerId].active == true){\n                    result[offerId] = offers[offerId].kittenId;\n                }\n            }\n            return result;\n        }\n    }\n\n    function _ownsKitty(address _address, uint256 _kittenId) internal view returns (bool){\n        return (_kittyContract.ownerOf(_kittenId) == _address);\n    }\n}",
  "sourcePath": "/Users/user/Documents/cryptoKitties-clone/github/academy-kitties-template/contracts/KittyMarketplace.sol",
  "compiler": {
    "name": "solc",
    "version": "0.5.12+commit.7709ece9.Emscripten.clang"
  },
  "schemaVersion": "3.0.16",
  "updatedAt": "2021-05-14T05:16:36.517Z",
  "devdoc": {
    "methods": {}
  },
  "userdoc": {
    "methods": {}
  }
}